{
  "address": "0xC924da88e33fD1eD04f4A8a1f6BD14Ad030a3dC9",
  "abi": [
    {
      "inputs": [
        {
          "internalType": "contract IEntryPoint",
          "name": "_entryPoint",
          "type": "address"
        }
      ],
      "stateMutability": "nonpayable",
      "type": "constructor"
    },
    {
      "inputs": [],
      "name": "accountImplementation",
      "outputs": [
        {
          "internalType": "contract SimpleAccount",
          "name": "",
          "type": "address"
        }
      ],
      "stateMutability": "view",
      "type": "function"
    },
    {
      "inputs": [
        {
          "internalType": "address",
          "name": "owner",
          "type": "address"
        },
        {
          "internalType": "uint256",
          "name": "salt",
          "type": "uint256"
        }
      ],
      "name": "createAccount",
      "outputs": [
        {
          "internalType": "contract SimpleAccount",
          "name": "ret",
          "type": "address"
        }
      ],
      "stateMutability": "nonpayable",
      "type": "function"
    },
    {
      "inputs": [
        {
          "internalType": "address",
          "name": "owner",
          "type": "address"
        },
        {
          "internalType": "uint256",
          "name": "salt",
          "type": "uint256"
        }
      ],
      "name": "getAddress",
      "outputs": [
        {
          "internalType": "address",
          "name": "",
          "type": "address"
        }
      ],
      "stateMutability": "view",
      "type": "function"
    },
    {
      "inputs": [],
      "name": "senderCreator",
      "outputs": [
        {
          "internalType": "contract ISenderCreator",
          "name": "",
          "type": "address"
        }
      ],
      "stateMutability": "view",
      "type": "function"
    }
  ],
  "transactionHash": "0x158496f8e58d0a22f5a8f1b0b66ba463d2961da6aba3552b7bd23829d8c3edb5",
  "args": [
    "0x379FF91b96c038ECb0dc6aCFb44366a39f0de566"
  ],
  "numDeployments": 3,
  "solcInputHash": "f57323ee2bc143dac5c906098cceeb34",
  "bytecode": "0x60c060405234801561001057600080fd5b5060405161255b38038061255b83398101604081905261002f9161011b565b8060405161003c906100f6565b6001600160a01b039091168152602001604051809103906000f080158015610068573d6000803e3d6000fd5b506001600160a01b03166080816001600160a01b031681525050806001600160a01b03166309ccb8806040518163ffffffff1660e01b8152600401602060405180830381865afa1580156100c0573d6000803e3d6000fd5b505050506040513d601f19601f820116820180604052508101906100e4919061011b565b6001600160a01b031660a0525061013f565b611b3480610a2783390190565b6001600160a01b038116811461011857600080fd5b50565b60006020828403121561012d57600080fd5b815161013881610103565b9392505050565b60805160a0516108b1610176600039600081816056015260ee0152600081816099015281816101b6015261029801526108b16000f3fe608060405234801561001057600080fd5b506004361061004c5760003560e01c806309ccb8801461005157806311464fbe146100945780635fbfb9cf146100bb5780638cb84e18146100ce575b600080fd5b6100787f000000000000000000000000000000000000000000000000000000000000000081565b6040516001600160a01b03909116815260200160405180910390f35b6100787f000000000000000000000000000000000000000000000000000000000000000081565b6100786100c9366004610391565b6100e1565b6100786100dc366004610391565b610259565b6000336001600160a01b037f00000000000000000000000000000000000000000000000000000000000000001614610179576040517f08c379a000000000000000000000000000000000000000000000000000000000815260206004820181905260248201527f6f6e6c792063616c6c61626c652066726f6d2053656e64657243726561746f72604482015260640160405180910390fd5b60006101858484610259565b90506001600160a01b0381163b80156101a057509050610253565b6040516001600160a01b038616602482015284907f00000000000000000000000000000000000000000000000000000000000000009060440160408051601f198184030181529181526020820180517bffffffffffffffffffffffffffffffffffffffffffffffffffffffff1663189acdbd60e31b1790525161022290610384565b61022d9291906103ed565b8190604051809103906000f590508015801561024d573d6000803e3d6000fd5b50925050505b92915050565b60006103428260001b6040518060200161027290610384565b601f1982820381018352601f9091011660408190526001600160a01b03871660248201527f00000000000000000000000000000000000000000000000000000000000000009060440160408051601f19818403018152918152602080830180517bffffffffffffffffffffffffffffffffffffffffffffffffffffffff1663189acdbd60e31b1790529051610309939291016103ed565b60408051601f19818403018152908290526103279291602001610430565b60405160208183030381529060405280519060200120610349565b9392505050565b60006103428383306000604051836040820152846020820152828152600b8101905060ff8153605590206001600160a01b0316949350505050565b61041c8061046083390190565b600080604083850312156103a457600080fd5b82356001600160a01b03811681146103bb57600080fd5b946020939093013593505050565b60005b838110156103e45781810151838201526020016103cc565b50506000910152565b6001600160a01b0383168152604060208201526000825180604084015261041b8160608501602087016103c9565b601f01601f1916919091016060019392505050565b600083516104428184602088016103c9565b8351908301906104568183602088016103c9565b0194935050505056fe608060405260405161041c38038061041c83398101604081905261002291610267565b61002c8282610033565b5050610357565b61003c82610092565b6040516001600160a01b038316907fbc7cd75a20ee27fd9adebab32041f755214dbc6bffa90cc0225b39da2e5c2d3b90600090a280511561008657610081828261010e565b505050565b61008e610185565b5050565b806001600160a01b03163b6000036100cd57604051634c9c8ce360e01b81526001600160a01b03821660048201526024015b60405180910390fd5b7f360894a13ba1a3210667c828492db98dca3e2076cc3735a920a3ca505d382bbc80546001600160a01b0319166001600160a01b0392909216919091179055565b6060600080846001600160a01b03168460405161012b919061033b565b600060405180830381855af49150503d8060008114610166576040519150601f19603f3d011682016040523d82523d6000602084013e61016b565b606091505b50909250905061017c8583836101a6565b95945050505050565b34156101a45760405163b398979f60e01b815260040160405180910390fd5b565b6060826101bb576101b682610205565b6101fe565b81511580156101d257506001600160a01b0384163b155b156101fb57604051639996b31560e01b81526001600160a01b03851660048201526024016100c4565b50805b9392505050565b80511561021457805160208201fd5b60405163d6bda27560e01b815260040160405180910390fd5b634e487b7160e01b600052604160045260246000fd5b60005b8381101561025e578181015183820152602001610246565b50506000910152565b6000806040838503121561027a57600080fd5b82516001600160a01b038116811461029157600080fd5b60208401519092506001600160401b038111156102ad57600080fd5b8301601f810185136102be57600080fd5b80516001600160401b038111156102d7576102d761022d565b604051601f8201601f19908116603f011681016001600160401b03811182821017156103055761030561022d565b60405281815282820160200187101561031d57600080fd5b61032e826020830160208601610243565b8093505050509250929050565b6000825161034d818460208701610243565b9190910192915050565b60b7806103656000396000f3fe6080604052600a600c565b005b60186014601a565b605e565b565b600060597f360894a13ba1a3210667c828492db98dca3e2076cc3735a920a3ca505d382bbc5473ffffffffffffffffffffffffffffffffffffffff1690565b905090565b3660008037600080366000845af43d6000803e808015607c573d6000f35b3d6000fdfea2646970667358221220d8cd19593dcb78aa517db91cd9911723db1aee85d2ee24a8d88716532e45417164736f6c634300081c0033a2646970667358221220dab7913bc5a75ebcf9f0d50858c8d2b495ca99323df1833a9500cc92524c556064736f6c634300081c003360c06040523060805234801561001457600080fd5b50604051611b34380380611b3483398101604081905261003391610100565b6001600160a01b03811660a05261004861004e565b50610130565b7ff0c57e16840df040f15088dc2f81fe391c3923bec73e23a9662efc9c229c6a00805468010000000000000000900460ff161561009e5760405163f92ee8a960e01b815260040160405180910390fd5b80546001600160401b03908116146100fd5780546001600160401b0319166001600160401b0390811782556040519081527fc7f505b2f371ae2175ee4913f4499e1f2633a7b5936321eed1cdaeb6115181d29060200160405180910390a15b50565b60006020828403121561011257600080fd5b81516001600160a01b038116811461012957600080fd5b9392505050565b60805160a0516119a0610194600039600081816102d5015281816105aa0152818161064b015281816107cc015281816109a5015281816109df01528181610b180152610eaa015260008181610c6501528181610c8e0152610e1101526119a06000f3fe6080604052600436106101125760003560e01c80638da5cb5b116100a5578063bc197c8111610074578063c4d66de811610059578063c4d66de814610376578063d087d28814610396578063f23a6e61146103ab57600080fd5b8063bc197c8114610319578063c399ec881461036157600080fd5b80638da5cb5b14610238578063ad3cb1cc14610270578063b0d691fe146102c6578063b61d27f6146102f957600080fd5b80634a58db19116100e15780634a58db19146101e85780634d44560d146101f05780634f1ef2861461021057806352d1902d1461022357600080fd5b806301ffc9a71461011e578063150b7a021461015357806319822f7c1461019857806334fcd5be146101c657600080fd5b3661011957005b600080fd5b34801561012a57600080fd5b5061013e610139366004611384565b6103f1565b60405190151581526020015b60405180910390f35b34801561015f57600080fd5b5061017f61016e36600461140c565b630a85bd0160e11b95945050505050565b6040516001600160e01b0319909116815260200161014a565b3480156101a457600080fd5b506101b86101b336600461147f565b610475565b60405190815260200161014a565b3480156101d257600080fd5b506101e66101e1366004611518565b61049b565b005b6101e66105a8565b3480156101fc57600080fd5b506101e661020b36600461155a565b610641565b6101e661021e36600461159c565b6106eb565b34801561022f57600080fd5b506101b861070a565b34801561024457600080fd5b50600054610258906001600160a01b031681565b6040516001600160a01b03909116815260200161014a565b34801561027c57600080fd5b506102b96040518060400160405280600581526020017f352e302e3000000000000000000000000000000000000000000000000000000081525081565b60405161014a91906116b8565b3480156102d257600080fd5b507f0000000000000000000000000000000000000000000000000000000000000000610258565b34801561030557600080fd5b506101e66103143660046116cb565b610739565b34801561032557600080fd5b5061017f610334366004611727565b7fbc197c810000000000000000000000000000000000000000000000000000000098975050505050505050565b34801561036d57600080fd5b506101b8610793565b34801561038257600080fd5b506101e66103913660046117f2565b61083d565b3480156103a257600080fd5b506101b8610965565b3480156103b757600080fd5b5061017f6103c636600461180f565b7ff23a6e61000000000000000000000000000000000000000000000000000000009695505050505050565b60006001600160e01b03198216630a85bd0160e11b148061043b57506001600160e01b031982167f4e2312e000000000000000000000000000000000000000000000000000000000145b8061046f57506001600160e01b031982167f01ffc9a700000000000000000000000000000000000000000000000000000000145b92915050565b600061047f6109d4565b6104898484610a4e565b905061049482610ac5565b9392505050565b6104a3610b0d565b8060005b818110156105a257368484838181106104c2576104c261188b565b90506020028101906104d491906118a1565b905060006105346104e860208401846117f2565b60208401356104fa60408601866118c1565b8080601f0160208091040260200160405190810160405280939291908181526020018383808284376000920191909152505050505a610b9a565b90508061059857836001036105505761054b610bb2565b610598565b8261055b6000610bc4565b6040517f5a15467500000000000000000000000000000000000000000000000000000000815260040161058f929190611908565b60405180910390fd5b50506001016104a7565b50505050565b7f00000000000000000000000000000000000000000000000000000000000000006040517fb760faf90000000000000000000000000000000000000000000000000000000081523060048201526001600160a01b03919091169063b760faf99034906024016000604051808303818588803b15801561062657600080fd5b505af115801561063a573d6000803e3d6000fd5b5050505050565b610649610bf6565b7f00000000000000000000000000000000000000000000000000000000000000006040517f205c28780000000000000000000000000000000000000000000000000000000081526001600160a01b03848116600483015260248201849052919091169063205c287890604401600060405180830381600087803b1580156106cf57600080fd5b505af11580156106e3573d6000803e3d6000fd5b505050505050565b6106f3610c5a565b6106fc82610d11565b6107068282610d19565b5050565b6000610714610e06565b507f360894a13ba1a3210667c828492db98dca3e2076cc3735a920a3ca505d382bbc90565b610741610b0d565b6000610784858585858080601f0160208091040260200160405190810160405280939291908181526020018383808284376000920191909152505050505a610b9a565b90508061063a5761063a610bb2565b6040517f70a082310000000000000000000000000000000000000000000000000000000081523060048201526000906001600160a01b037f000000000000000000000000000000000000000000000000000000000000000016906370a08231906024015b602060405180830381865afa158015610814573d6000803e3d6000fd5b505050506040513d601f19601f820116820180604052508101906108389190611929565b905090565b6000610847610e4f565b805490915060ff68010000000000000000820416159067ffffffffffffffff166000811580156108745750825b905060008267ffffffffffffffff1660011480156108915750303b155b90508115801561089f575080155b156108d6576040517ff92ee8a900000000000000000000000000000000000000000000000000000000815260040160405180910390fd5b845467ffffffffffffffff19166001178555831561090a57845468ff00000000000000001916680100000000000000001785555b61091386610e78565b83156106e357845468ff000000000000000019168555604051600181527fc7f505b2f371ae2175ee4913f4499e1f2633a7b5936321eed1cdaeb6115181d29060200160405180910390a1505050505050565b6040517f35567e1a000000000000000000000000000000000000000000000000000000008152306004820152600060248201819052906001600160a01b037f000000000000000000000000000000000000000000000000000000000000000016906335567e1a906044016107f7565b336001600160a01b037f00000000000000000000000000000000000000000000000000000000000000001614610a4c5760405162461bcd60e51b815260206004820152601c60248201527f6163636f756e743a206e6f742066726f6d20456e747279506f696e7400000000604482015260640161058f565b565b6000610a9c82610a626101008601866118c1565b8080601f016020809104026020016040519081016040528093929190818152602001838380828437600092019190915250610ef492505050565b6000546001600160a01b03908116911614610ab95750600161046f565b50600092915050565b50565b8015610ac257604051600090339083908381818185875af1925050503d806000811461063a576040519150601f19603f3d011682016040523d82523d6000602084013e61063a565b336001600160a01b037f0000000000000000000000000000000000000000000000000000000000000000161480610b4e57506000546001600160a01b031633145b610a4c5760405162461bcd60e51b815260206004820181905260248201527f6163636f756e743a206e6f74204f776e6572206f7220456e747279506f696e74604482015260640161058f565b6000806000845160208601878987f195945050505050565b610a4c610bbf6000610bc4565b610f1e565b60603d8215610bd85782811115610bd85750815b604051602082018101604052818152816000602083013e9392505050565b6000546001600160a01b0316331480610c0e57503330145b610a4c5760405162461bcd60e51b815260206004820152600a60248201527f6f6e6c79206f776e657200000000000000000000000000000000000000000000604482015260640161058f565b306001600160a01b037f0000000000000000000000000000000000000000000000000000000000000000161480610cf357507f00000000000000000000000000000000000000000000000000000000000000006001600160a01b0316610ce77f360894a13ba1a3210667c828492db98dca3e2076cc3735a920a3ca505d382bbc546001600160a01b031690565b6001600160a01b031614155b15610a4c5760405163703e46dd60e11b815260040160405180910390fd5b610ac2610bf6565b816001600160a01b03166352d1902d6040518163ffffffff1660e01b8152600401602060405180830381865afa925050508015610d73575060408051601f3d908101601f19168201909252610d7091810190611929565b60015b610d9b57604051634c9c8ce360e01b81526001600160a01b038316600482015260240161058f565b7f360894a13ba1a3210667c828492db98dca3e2076cc3735a920a3ca505d382bbc8114610df7576040517faa1d49a40000000000000000000000000000000000000000000000000000000081526004810182905260240161058f565b610e018383610f26565b505050565b306001600160a01b037f00000000000000000000000000000000000000000000000000000000000000001614610a4c5760405163703e46dd60e11b815260040160405180910390fd5b6000807ff0c57e16840df040f15088dc2f81fe391c3923bec73e23a9662efc9c229c6a0061046f565b6000805473ffffffffffffffffffffffffffffffffffffffff19166001600160a01b03838116918217835560405191927f0000000000000000000000000000000000000000000000000000000000000000909116917f47e55c76e7a6f1fd8996a1da8008c1ea29699cca35e7bcd057f2dec313b6e5de9190a350565b600080600080610f048686610f7c565b925092509250610f148282610fc9565b5090949350505050565b805160208201fd5b610f2f826110cd565b6040516001600160a01b038316907fbc7cd75a20ee27fd9adebab32041f755214dbc6bffa90cc0225b39da2e5c2d3b90600090a2805115610f7457610e018282611151565b6107066111c7565b60008060008351604103610fb65760208401516040850151606086015160001a610fa8888285856111ff565b955095509550505050610fc2565b50508151600091506002905b9250925092565b6000826003811115610fdd57610fdd611942565b03610fe6575050565b6001826003811115610ffa57610ffa611942565b03611031576040517ff645eedf00000000000000000000000000000000000000000000000000000000815260040160405180910390fd5b600282600381111561104557611045611942565b0361107f576040517ffce698f70000000000000000000000000000000000000000000000000000000081526004810182905260240161058f565b600382600381111561109357611093611942565b03610706576040517fd78bce0c0000000000000000000000000000000000000000000000000000000081526004810182905260240161058f565b806001600160a01b03163b60000361110357604051634c9c8ce360e01b81526001600160a01b038216600482015260240161058f565b7f360894a13ba1a3210667c828492db98dca3e2076cc3735a920a3ca505d382bbc805473ffffffffffffffffffffffffffffffffffffffff19166001600160a01b0392909216919091179055565b6060600080846001600160a01b03168460405161116e9190611958565b600060405180830381855af49150503d80600081146111a9576040519150601f19603f3d011682016040523d82523d6000602084013e6111ae565b606091505b50915091506111be8583836112ce565b95945050505050565b3415610a4c576040517fb398979f00000000000000000000000000000000000000000000000000000000815260040160405180910390fd5b600080807f7fffffffffffffffffffffffffffffff5d576e7357a4501ddfe92f46681b20a084111561123a57506000915060039050826112c4565b604080516000808252602082018084528a905260ff891692820192909252606081018790526080810186905260019060a0016020604051602081039080840390855afa15801561128e573d6000803e3d6000fd5b5050604051601f1901519150506001600160a01b0381166112ba575060009250600191508290506112c4565b9250600091508190505b9450945094915050565b6060826112e3576112de82611343565b610494565b81511580156112fa57506001600160a01b0384163b155b1561133c576040517f9996b3150000000000000000000000000000000000000000000000000000000081526001600160a01b038516600482015260240161058f565b5080610494565b80511561135257805160208201fd5b6040517fd6bda27500000000000000000000000000000000000000000000000000000000815260040160405180910390fd5b60006020828403121561139657600080fd5b81356001600160e01b03198116811461049457600080fd5b6001600160a01b0381168114610ac257600080fd5b60008083601f8401126113d557600080fd5b50813567ffffffffffffffff8111156113ed57600080fd5b60208301915083602082850101111561140557600080fd5b9250929050565b60008060008060006080868803121561142457600080fd5b853561142f816113ae565b9450602086013561143f816113ae565b935060408601359250606086013567ffffffffffffffff81111561146257600080fd5b61146e888289016113c3565b969995985093965092949392505050565b60008060006060848603121561149457600080fd5b833567ffffffffffffffff8111156114ab57600080fd5b840161012081870312156114be57600080fd5b95602085013595506040909401359392505050565b60008083601f8401126114e557600080fd5b50813567ffffffffffffffff8111156114fd57600080fd5b6020830191508360208260051b850101111561140557600080fd5b6000806020838503121561152b57600080fd5b823567ffffffffffffffff81111561154257600080fd5b61154e858286016114d3565b90969095509350505050565b6000806040838503121561156d57600080fd5b8235611578816113ae565b946020939093013593505050565b634e487b7160e01b600052604160045260246000fd5b600080604083850312156115af57600080fd5b82356115ba816113ae565b9150602083013567ffffffffffffffff8111156115d657600080fd5b8301601f810185136115e757600080fd5b803567ffffffffffffffff81111561160157611601611586565b604051601f8201601f19908116603f0116810167ffffffffffffffff8111828210171561163057611630611586565b60405281815282820160200187101561164857600080fd5b816020840160208301376000602083830101528093505050509250929050565b60005b8381101561168357818101518382015260200161166b565b50506000910152565b600081518084526116a4816020860160208601611668565b601f01601f19169290920160200192915050565b602081526000610494602083018461168c565b600080600080606085870312156116e157600080fd5b84356116ec816113ae565b935060208501359250604085013567ffffffffffffffff81111561170f57600080fd5b61171b878288016113c3565b95989497509550505050565b60008060008060008060008060a0898b03121561174357600080fd5b883561174e816113ae565b9750602089013561175e816113ae565b9650604089013567ffffffffffffffff81111561177a57600080fd5b6117868b828c016114d3565b909750955050606089013567ffffffffffffffff8111156117a657600080fd5b6117b28b828c016114d3565b909550935050608089013567ffffffffffffffff8111156117d257600080fd5b6117de8b828c016113c3565b999c989b5096995094979396929594505050565b60006020828403121561180457600080fd5b8135610494816113ae565b60008060008060008060a0878903121561182857600080fd5b8635611833816113ae565b95506020870135611843816113ae565b94506040870135935060608701359250608087013567ffffffffffffffff81111561186d57600080fd5b61187989828a016113c3565b979a9699509497509295939492505050565b634e487b7160e01b600052603260045260246000fd5b60008235605e198336030181126118b757600080fd5b9190910192915050565b6000808335601e198436030181126118d857600080fd5b83018035915067ffffffffffffffff8211156118f357600080fd5b60200191503681900382131561140557600080fd5b828152604060208201526000611921604083018461168c565b949350505050565b60006020828403121561193b57600080fd5b5051919050565b634e487b7160e01b600052602160045260246000fd5b600082516118b781846020870161166856fea26469706673582212206ba0246f87c40a5cafd85d2766e2add91b02d6d610da3e5e7ed6a366bfabb1ac64736f6c634300081c0033",
  "devdoc": {
    "kind": "dev",
    "methods": {},
    "version": 1
  },
  "userdoc": {
    "kind": "user",
    "methods": {
      "createAccount(address,uint256)": {
        "notice": "create an account, and return its address. returns the address even if the account is already deployed. Note that during UserOperation execution, this method is called only if the account is not deployed. This method returns an existing account address so that entryPoint.getSenderAddress() would work even after account creation"
      },
      "getAddress(address,uint256)": {
        "notice": "calculate the counterfactual address of this account as it would be returned by createAccount()"
      }
    },
    "notice": "A sample factory contract for SimpleAccount A UserOperations \"initCode\" holds the address of the factory, and a method call (to createAccount, in this sample factory). The factory's createAccount returns the target account address even if it is already installed. This way, the entryPoint.getSenderAddress() can be called either before or after the account is created.",
    "version": 1
  },
  "storageLayout": {
    "storage": [],
    "types": null
  }
}